:020000040000FA
:10000000C7EF00F0086E1AC0EAFF1AC0E2FF1850EE
:10001000E96E120FE16E090E096ED89007D808320A
:10002000092EFCD7D88002D8C4EF00F001A60BD06F
:10003000EF50161001A41618EF6EE7501610D8A056
:100040001618E76E0AD0EF501610D8A0161801B493
:100050001618EF6E161CE71600D00134060B7A0F47
:10006000F66EF76A000EF722F86A0900F550036E83
:100070000800F55000004FEF00F0017F031F00461D
:100080000CE3056A046EE86A0406055AD8A0C4EFBA
:1000900000F0030E036EE00E02D8F5D7036AE90FF5
:1000A000026EFC0E05E3000004000226FDE20000E3
:1000B00002260306F9E202B000D002A202D000D06C
:1000C00000001200096A010F086EE86A092209326D
:1000D00008320806095AD8A0C4EF00F00300F9D787
:1000E000D89003320232FF0FFBE20250C4EF00F05F
:1000F000046E060E03D0046E040E00D00A6E055086
:10010000035C02E10450025C040ED8B0010ED8B4C6
:10011000020E0A14D8A4FF0EC4EF00F0076A066AA4
:10012000100E086E0334063607360450065E05507E
:10013000075A05E20450062605500722D8900236D9
:100140000336082EEFD70250C4EF00F00450080227
:10015000F3CF06F0F4CF07F005500902F3CF02F019
:10016000F4CF03F00802F3500726F4500222E86AA5
:10017000032204500902F3500726F4500222E86AD1
:1001800003220650C4EF00F0000104001200620ECA
:10019000D36E0C0EC16E900EC06EB56AD26A060E9A
:1001A000936E946A246A256A286A819624C002F0B4
:1001B00025C003F0070E056ED00E9DDFD8A4ECEF2E
:1001C00000F081800B0E056EB80E5CDF7BEC01F059
:1001D0004B0E57DFF4EF00F0040081B2F4EF00F0B3
:1001E000140E2426000E2522040081A44EEF01F0F7
:1001F000246A256A286A206A216ADEEC01F012EC82
:1002000002F004003D0E285CD8B020EF01F0282A4F
:1002100000EC02F01CC002F01DC003F01FC005F08E
:100220001E5066DFD8A41FEF01F01E501C5C146E38
:100230001F501D58156E1450202615502122E1D74D
:1002400020C002F021C003F03C0E046E056A66DF98
:10025000206E03C021F020C029F020C002F021C090
:1002600003F0080E40DF2A6E22C02BF022C002F0FD
:1002700023C003F0080E37DF2C6E26C02DF026C0F9
:1002800002F027C003F0080E2EDF2E6E70EC01F096
:100290004B0EF7DE57EC01F054EF01F070EC01F07B
:1002A000040E2426000E25224B0EEBDE7FD7810E96
:1002B000186E0F0E1A6E080E166E040E016E480EA2
:1002C000A1DE29509FDE2A509DDE2B509BDE2C5054
:1002D00099DE2D5097DE2E5095DE490E93DE1200EA
:1002E000810E186E0F0E1A6E080E166E040E016E39
:1002F0004E0E88DE12008190810E186E0F0E1A6E5F
:10030000080E166E040E016E540E7CDE540E7ADE5C
:10031000540E78DE540E76DE4B0EB3DE810E186E70
:100320000F0E1A6E080E166E040E016E540E6ADE63
:10033000540E68DE540E66DE540E64DE4B0EA1DEF3
:10034000810E186E0F0E1A6E080E166E040E016ED8
:10035000540E58DE540E56DE540E54DE540E52DE49
:10036000F50EF16E480EF06EFD0E096EE80EABDE76
:10037000F06AB6DF246A256A1200010EC26E030E0F
:10038000C26E0400C2500108D8B4CCEF01F020C006
:1003900020F021C021F0F5D7C4CF08F0096A046A23
:1003A000010E056ED3DE146E07C015F0C350142481
:1003B0001C6EE86A15201D6EC26A1200050EC26E20
:1003C000070EC26E0400C2500508D8B4EDEF01F06C
:1003D00022C022F023C023F0F5D7C4CF08F0096A69
:1003E000046A010E056EB2DE146E07C015F0C3502C
:1003F0001424226EE86A1520236E040EC26E1200C9
:100400008190010E036E900E4ADEB7DF1CC01EF015
:100410001DC01FF08180010E036E900E40DEADDF27
:1004200081901200090EC26E0B0EC26E0400C25003
:100430000908D8B421EF02F026C026F027C027F023
:10044000F5D7C4CF08F0096A046A010E056E7EDE96
:10045000146E07C015F0C3501424266EE86A1520E8
:08046000276E080EC26E1200A7
:020000040030CA
:04000000240E3F1378
:020005008181F7
:060008000FC00FE00F40E5
:00000001FF
